:0200000480007A
:100000006F00000B1300000013000000130000003D
:100010001300000013000000130000001300000094
:10002000232E11FE232C51FE232A61FE232871FE6C
:100030002326A1FE2324B1FE2322C1FE2320D1FECC
:10004000232EE1FC232CF1FC232A01FD232811FDA2
:100050002326C1FD2324D1FD2322E1FD2320F1FD30
:10006000130101FCEF0080448320C103832281033C
:1000700003234103832301030325C1028325810256
:1000800003264102832601020327C1018327810140
:100090000328410183280101032EC100832E810022
:1000A000032F4100832F010013010104730020304E
:1000B00097110000938101CB138101A01705000067
:1000C0001305454A970500009385C5496308B500A7
:1000D00023200500130545006FF05FFF17050000A2
:1000E000130505481301C1FF970500009385454797
:1000F000630EB50083260500130545002320A100EB
:10010000E7800600032501006FF01FFE1301410088
:10011000371500001305058873104530372500009A
:100120001305858073100530EF00C0196F000000C3
:10013000130101FE232E8100130401022326A4FED5
:100140008327C4FE23A007008327C4FE23A407003F
:10015000130000000324C1011301010267800000A5
:10016000130101FE232E8100130401022326A4FEA5
:10017000130000000324C101130101026780000085
:10018000130101FE232E8100130401022326A4FE85
:100190008327C4FE23A207008327C4FE1307F0FFB2
:1001A00023A0E700130000000324C1011301010292
:1001B00067800000130101FE232E81001304010259
:1001C0002326A4FE8327C4FE83A7470093D70701F5
:1001D00093F7F70F138507000324C10113010102F0
:1001E00067800000130101FE232E81001304010229
:1001F0002326A4FE8327C4FE83A7470093D7870145
:10020000138507000324C101130101026780000068
:10021000130101FE232E1100232C8100130401027F
:100220002326A4FE2324B4FE130000000325C4FEED
:10023000EFF05FF893070500E38A07FE8327C4FE0B
:10024000032784FE23A0E700130000008320C101E0
:10025000032481011301010267800000130101FEE4
:10026000232E8100130401022326A4FE2324B4FEBE
:10027000832784FE03A7C7008327C4FE23A4E700C7
:10028000832784FE83A707001387F7FF832784FE55
:1002900083A74700939787003367F700832784FE7F
:1002A00083A78700939707013367F7008327C4FE6E
:1002B00023A6E700130000000324C101130101027B
:1002C00067800000130101FA232E1104232C8104FE
:1002D00013040106930710002320F4FE9307200067
:1002E000232EF4FC93073000232CF4FC232604FE79
:1002F000B70700809387C75203AF070083AE47005C
:1003000003AE870003A3C70083A8070103A8470122
:1003100003A5870183A5C70103A6070283A6470299
:1003200003A7870283A7C7022324E4FB2326D4FB69
:100330002328C4FB232A64FA232C14FB232E04FB5A
:100340002320A4FC2322B4FC2324C4FC2326D4FCB5
:100350002328E4FC232AF4FC232404FEB70702F03C
:1003600013850701EFF0DFE1370502F0EFF05FDF03
:10037000B70702F013850704EFF09FDBB70702F021
:1003800037C700001307F73423A0E700B70702F0D0
:10039000938707041307703E23A2E700B70702F014
:1003A00093870704370701001307270023A0E700FE
:1003B000B70702F0938707011307F00023A0E700B7
:1003C000B70702F0938707011307100023A2E70085
:1003D000B70700F01307F00F23A4E700B70700F0FA
:1003E00023A20700B70701F01307200023A2E700AC
:1003F000B70701F01307100423A0E700832704FECA
:100400000327C4FEB307F7002326F4FE0327C4FD29
:10041000832784FDB307F7000327C4FEB307F70063
:100420002326F4FE232204FE6F000001832744FEEE
:10043000938717002322F4FE032744FEB717030017
:100440009387F7D3E3F4E7FE032784FE9307F002D4
:100450006316F700232404FE6F000001832784FE47
:10046000938717002324F4FE832784FE130704FFD9
:10047000B307F70003C787FBB70701F023A0E70026
:10048000B70700F083A7470093F607FCB70700F013
:1004900083A747009387170013F7F703B70700F008
:1004A00033E7E60023A2E7006FF05FF5130101FFD9
:1004B0002326810013040101B70702F09387070187
:1004C00083A7070093F7170063800704B70700F0BE
:1004D00003A74700B70700F01347070823A2E70068
:1004E000B70702F0938707011307100023A0E70066
:1004F0006F008001B70701F003A70700B70701F0FD
:100500001377F70F23A0E700B70701F083A7470091
:1005100093F70720E39007FE13000000130000008C
:0C0520000324C1001301010167800000EA
:10052C004C6965626572204672616E7A212057694A
:10053C00722077C3BC6E736368656E204469722049
:10054C0065696E652067757465205A65697421004C
:04055C00000000009B
:040000058000000077
:00000001FF
